:0400000092EF02F089
:1000080000C018F001C017F00CC016F00DC015F0B4
:100018009EAA2CD09E9A38D90050010A27E1A4D96B
:1000280000C0C9F00050310A07E184808492010EB3
:1000380000018B6F000E8C6F0001C951330A06E175
:1000480084828490030E8B6F000E8C6FC951320A24
:1000580005E18490020E8B6F000E8C6FC951340A33
:1000680005E18492040E8B6F000E8C6FF2A239D0DA
:100078000001F292754B762B020E046E000E056E8F
:1000880075C000F076C001F00CD908C000F009C0B6
:1000980001F0000E011802E1000E001807E0010E41
:1000A80000018B6F000E8C6F84808492020E046EA8
:1000B800000E056E75C000F076C001F0F2D808C0D9
:1000C80000F009C001F0000E011802E1000E00184E
:1000D80008E1020E00018B6F000E8C6F8490756B27
:1000E800766BF0A039D00001F090B74BB82B020E18
:1000F800046E000E056EB7C000F0B8C001F0D1D88C
:1001080008C000F009C001F0000E011802E1000E5D
:10011800001807E0030E00018B6F000E8C6F8482BD
:100128008490020E046E000E056EB7C000F0B8C0D1
:1001380001F0B7D808C000F009C001F0000E01189E
:1001480002E1000E001808E1040E00018B6F000E9A
:100158008C6F8492B76BB86B18C000F017C001F0B1
:0A01680016C00CF015C00DF01100D8
:0C0172000000000000000000000012006F
:10017E00240E0C6EB50E0D6E0D2EFED70C2EFCD76A
:06018E0000000000120059
:0A019400530E0D6E0D2EFED7120063
:10019E000001D1BF02D08C9A01D08C8AD1BD02D081
:1001AE008C9801D08C88D1BB02D08C9601D08C86D5
:1001BE00D1B902D08C9401D08C84CAB102D08C807B
:1001CE0001D08C908C82CEDF8C92D1B702D08C9ADB
:1001DE0001D08C8AD1B502D08C9801D08C88D1B345
:1001EE0002D08C9601D08C86D1B102D08C9401D0E5
:1001FE008C84CAB102D08C8001D08C908C82B2DFFC
:0E020E008C92CAA102D0B4DF01D0BDDF120075
:0E021C00ACB202D00000FCD7D0C0ADFF120083
:10022A000134083609360450085E0550D8A0053C4A
:10023A00095E003601360F0E0C6E01340836093697
:10024A00045000A006D0085E0550D8A0053C095EFF
:10025A0005D008260550D8B0053C092600360136D7
:10026A000C2EEBD700B006D0045008260550D8B0A3
:08027A00053C092600001200FA
:0E0282000001CA91D0C0D1F089DFCA811200FC
:0A029000000E9EBA010E006E12006F
:10029A000900F5CFE6FF0006FBE10106F9E11200CD
:1002AA000450000A08E10550000A05E1FF0E006E3D
:1002BA007F0E016E57D00D6A096A086A0150001054
:1002CA00D8B4000C015005180A6E0ABE0D1E0B6A3E
:1002DA0005AE05D0041E051E042AD8B4052A01AEAF
:1002EA0005D0001E011E002AD8B4012A01500510AB
:1002FA000A6E0ABE10D094DF0BB020D00DAE000CEF
:10030A00001E011E002AD8B4012A081E091E082A46
:10031A00D8B4092A000C05AE0DD001BE07D0015091
:10032A00096E0050086E016A006AE8D7016A006A1D
:10033A00002A000C011E001E0B2ADDD7082AD8B499
:10034A00092A0450085CD8A4D9D70550095CD8A456
:10035A00D5D7096A086A002AD8B4012A01AECED7CD
:06036A000000FF0C120070
:10037000AECF01F0ABA202D0AB98AB8801C000F0C9
:02038000120069
:1003820010D0800E0001CB6F1AD0C00ECB6F17D0E9
:10039200940ECB6F14D0D40ECB6F11D0800ECB6FD6
:1003A2000ED00001CB51010AECE0CB51020AEDE084
:1003B200CB51030AEDE0CB51040AEDE0EFD7CC05B7
:1003C200006ECB51002600C0CBF000C0D1F0E6DEBB
:1003D200CA91CF6BCF51CD25E96E000ECE21EA6EC8
:1003E200EE520BE0CF51CD25E96E000ECE21EA6E22
:0E03F200EECFD0F045DFCF2BEDD7CA81120041
:100400000001CE6BCBC0E9FFCCC0EAFFEECFCDF050
:10041000CD51000A0EE0CDC0D0F000DF0001CE2BA0
:10042000CE51CB25E96E000ECC21EA6EEECFCDF099
:04043000EFD71200F0
:1004340095929590959495969598959A8C928C9082
:100444008C9A8C988C968C9498DE97DE96DE8C86AB
:100454008C848C828CDE8C9290DE8C8288DE8C92F2
:100464008CDE8C8284DE8C9288DE8C948C827FDE9F
:100474008C9283DE8C827BDE8C928C968C8A8C822E
:1004840076DE8C927ADE8C9A8C848C8270DE8C92EE
:100494008C948C826CDE8C9270DE8C8268DE8C9202
:1004A4008C848C8264DE8C9268DE8C948C825FDE19
:1004B4008C928C8A8C888C868C848C8258DE8C926C
:0804C4005CDE0001CA81120098
:1004CC001C0E0001C56F020EC66FD00EC76F000E5A
:1004DC00C86F700EB96F030EBA6F000EBB6F000EB3
:1004EC00BC6F900EBD6F020EBE6F000EBF6F000E84
:1004FC00C06FFF0EC16FFF0EC26F000EC36F000EF8
:10050C00C46FAC8A900EAB6E948E949C9EAA03D052
:08051C00AECF00F0FBD7120086
:1005240097EC03F085DF010ED16F37DE0C0ED16F2F
:1005340034DEB886020EB06E080EAF6EAC84C4DF33
:10054400010ECB6F010ECC6F770ECD6F000ECE6F08
:1005540016DF0F0EC112070EB412816A8A6A9380E5
:100564009382F19E846A8D6A96909692806A896AD3
:1005740092809282F292F090F288F086F18CF18A65
:100584009E9A9D8AF28EF28C80B010D08490756B06
:10059400766B020ECB6F010ECC6F600ECD6F000E2A
:1005A400CE6FEDDE020E8B6F000E8C6F80B210D01A
:1005B4008492B76BB86B020ECB6F010ECC6FA20E98
:1005C400CD6F000ECE6FDBDE040E8B6F000E8C6FD2
:1005D400000E8C1902E1010E8B1911E1020ECB6F92
:1005E400010ECC6F8D0ECD6F000ECE6FC8DE8B6BFF
:1005F4008C6B300ECB6F000ECC6F00DF44D0000E3E
:100604008C1902E1020E8B1911E1020ECB6F010E5F
:10061400CC6F1B0ECD6F000ECE6FB1DE8B6B8C6B6F
:10062400190ECB6F000ECC6FE9DE2DD0000E8C19A5
:1006340002E1030E8B1911E1020ECB6F010ECC6F98
:10064400320ECD6F000ECE6F9ADE8B6B8C6B5E0E0E
:10065400CB6F000ECC6FD2DE16D0000E8C1902E1E7
:10066400040E8B1910E1020ECB6F010ECC6F490EF4
:10067400CD6F000ECE6F83DE8B6B8C6B470ECB6F12
:0A068400000ECC6FBBDE80D7FFD75D
:10072E0010EE19F0A00E006E010E016E8E0EF66E1A
:0E073E00060EF76E000EF86E4DEC01F0120084
:02068E00420028
:100690004461206D6F202020202020202020202059
:0506A0002020202000D5
:0206A500410012
:1006A70044616E6720646F6E672063756120202048
:0506B7002020202000BE
:0206BC004400F8
:1006BE00446120646F6E672020202020202020209F
:0506CE002020202000A7
:0206D3004300E2
:1006D5004461206D6F202020202020202020202014
:0506E500202020200090
:0206EA0000000E
:1006EC005472616E67207468616920637561206360
:0406FC00756F6E00A8
:020700000000F7
:1007020044616E67206D6F20637561202020202078
:05071200202020200062
:10071700446120646F6E6720202020202020202045
:0507270020202020004D
:02072C000000CB
:020000040030CA
:0E000000240C1E1EFF8081FF0FC00FE00F407A
:00000001FF
